{
  "contractName": "HelloWorld",
  "abi": [
    {
      "inputs": [],
      "payable": false,
      "stateMutability": "nonpayable",
      "type": "constructor"
    },
    {
      "constant": false,
      "inputs": [
        {
          "internalType": "uint256",
          "name": "_storedInt",
          "type": "uint256"
        }
      ],
      "name": "setInt",
      "outputs": [],
      "payable": false,
      "stateMutability": "nonpayable",
      "type": "function"
    },
    {
      "constant": true,
      "inputs": [],
      "name": "getInt",
      "outputs": [
        {
          "internalType": "uint256",
          "name": "",
          "type": "uint256"
        }
      ],
      "payable": false,
      "stateMutability": "view",
      "type": "function"
    },
    {
      "constant": true,
      "inputs": [],
      "name": "getString",
      "outputs": [
        {
          "internalType": "string",
          "name": "",
          "type": "string"
        }
      ],
      "payable": false,
      "stateMutability": "view",
      "type": "function"
    }
  ],
  "bytecode": "0x608060405234801561001057600080fd5b506040518060400160405280600b81526020017f486f6c61206d756e646f210000000000000000000000000000000000000000008152506001908051906020019061005c929190610062565b50610107565b828054600181600116156101000203166002900490600052602060002090601f016020900481019282601f106100a357805160ff19168380011785556100d1565b828001600101855582156100d1579182015b828111156100d05782518255916020019190600101906100b5565b5b5090506100de91906100e2565b5090565b61010491905b808211156101005760008160009055506001016100e8565b5090565b90565b6101ff806101166000396000f3fe608060405234801561001057600080fd5b50600436106100415760003560e01c80634442031114610046578063627389981461007457806389ea642f14610092575b600080fd5b6100726004803603602081101561005c57600080fd5b8101908080359060200190929190505050610115565b005b61007c61011f565b6040518082815260200191505060405180910390f35b61009a610128565b6040518080602001828103825283818151815260200191508051906020019080838360005b838110156100da5780820151818401526020810190506100bf565b50505050905090810190601f1680156101075780820380516001836020036101000a031916815260200191505b509250505060405180910390f35b8060008190555050565b60008054905090565b606060018054600181600116156101000203166002900480601f0160208091040260200160405190810160405280929190818152602001828054600181600116156101000203166002900480156101c05780601f10610195576101008083540402835291602001916101c0565b820191906000526020600020905b8154815290600101906020018083116101a357829003601f168201915b505050505090509056fea265627a7a72315820454ec278bf3e2359c1eed6ec6e0adb1cb05aff77cba8b7f7e512dcb68a1603e664736f6c63430005100032",
  "source": "// SPDX-License-Identifier: MIT\npragma solidity >=0.4.22 <0.9.0;\n\ncontract HelloWorld {\n\n  // Variables\n  uint storedInt;\n  string storedString;\n  \n  // Eventos\n\n  // Modificadores\n\n  // Constructor\n  constructor() public {\n    storedString = \"Hola mundo!\";\n  }\n\n  // Funciones\n  function setInt(uint _storedInt) public {\n    storedInt = _storedInt;\n  }\n\n  function getInt() public view returns (uint) {\n    return storedInt;\n  }\n\n  function getString() public view returns (string memory) {\n    return storedString;\n  }\n\n}\n\n// Crear un contrato con dos funciones guardar una variable que guarde un valor numerico, \n// otra funcion que lo retorne y una variable publica de string con la palabra Hola mundo.\n",
  "sourcePath": "/home/diego/Documentos/repositorio/solidity/proyectos/truffle-project/contracts/HelloWorld.sol",
  "compiler": {
    "name": "solc",
    "version": "0.5.16+commit.9c3226ce.Emscripten.clang"
  },
  "schemaVersion": "3.3.3",
  "updatedAt": "2021-02-10T00:58:05.633Z",
  "networkType": "ethereum",
  "devdoc": {
    "methods": {}
  },
  "userdoc": {
    "methods": {}
  }
}